:100000000C9434000C9451000C9451000C94510049
:100010000C9451000C9451000C9451000C9451001C
:100020000C9451000C9451000C9451000C9451000C
:100030000C9451000C9451000C9451000C945100FC
:100040000C9451000C9451000C9451000C945100EC
:100050000C9451000C9451000C9451000C945100DC
:100060000C9451000C94510011241FBECFEFD4E02A
:10007000DEBFCDBF11E0A0E0B1E0E6EDF3E002C0ED
:1000800005900D92AC30B107D9F721E0ACE0B1E0BA
:1000900001C01D92AE30B207E1F70E947C010C94C2
:1000A000E9010C94000086E785B980E18BB92FEF58
:1000B00084E39CE0215080409040E1F700C00000C4
:1000C00080E046E739E720E180FD09C035B92BB96A
:1000D000EFE0F7E23197F1F700C000000AC045B940
:1000E0009BB1990F9BB9EFE0F7E23197F1F700C0B0
:1000F00000008F5F823341F790E03BEA46E779E703
:1001000068E350E1939F812D11248695282F220FBB
:10011000820FF92FF81B49F465B95BB9EFE0F7E2FC
:100120003197F1F700C0000017C0F13059F475B9EC
:100130008BB1880F8BB9EFE0F7E23197F1F700C090
:1001400000000AC045B98BB1880F8BB9EFE0F7E228
:100150003197F1F700C000009F5F923399F680E07D
:1001600026E759E738E340E1982F937049F435B911
:100170004BB9EFE0F7E23197F1F700C0000024C07F
:10018000913059F435B99BB1990F9BB9EFE0F7E283
:100190003197F1F700C0000017C0923059F455B9FB
:1001A0009BB1990F9BB9EFE0F7E23197F1F700C0EF
:1001B00000000AC025B99BB1990F9BB9EFE0F7E2A7
:1001C0003197F1F700C000008F5F823369F680E05D
:1001D00029E758E34FE330E1982F937049F445B98C
:1001E0003BB9EFE0F7E23197F1F700C0000024C01F
:1001F000913059F455B99BB1990F9BB9EFE0F7E2F3
:100200003197F1F700C0000017C0923059F455B98A
:100210009BB1990F9BB9EFE0F7E23197F1F700C07E
:1002200000000AC025B99BB1990F9BB9EFE0F7E236
:100230003197F1F700C000008F5F823369F690E0DC
:100240003BEA48E36FE350E2939F812D11248695AA
:10025000282F220F820FF92FF81B49F465B95BB9DB
:10026000EFE0F7E23197F1F700C0000017C0F1307E
:1002700059F445B98BB1880F8BB9EFE0F7E23197AC
:10028000F1F700C000000AC045B98BB1880F8BB9E7
:10029000EFE0F7E23197F1F700C000009F5F923383
:1002A00099F680E048E33FE320E480FD09C035B9DA
:1002B0002BB9EFE0F7E23197F1F700C000000AC078
:1002C00045B99BB1990F9BB9EFE0F7E23197F1F790
:1002D00000C000008F5F823341F78FE385B980E86B
:1002E0008BB9FFEF24E38CE0F15020408040E1F730
:1002F00000C000001BB808958FEF84B98AB1806FE9
:100300008AB981E085B98BB1806F8BB980E18BB9F7
:100310000E94530082ED94E090930D0180930C01B4
:10032000EAE0F0E040E131E080910C0190910D01B4
:10033000803127E292071CF4323028F40CC08091FF
:10034000000185B910C021E0BF010E94C101CB01AD
:100350002F5F3213F9CFBF010E94C101DC01AF5FF3
:10036000BE4F8C9185B98FE097E20197F1F700C0FD
:1003700000008BB1880F8BB93F5F3530A9F64BB9C0
:10038000D2CF97FB072E16F4009407D077FD09D043
:100390000E94D50107FC05D03EF4909581959F4FB2
:1003A0000895709561957F4F0895AA1BBB1B51E17D
:1003B00007C0AA1FBB1FA617B70710F0A61BB70BD5
:1003C000881F991F5A95A9F780959095BC01CD017A
:0603D0000895F894FFCF30
:0C03D600403F065B4F666D7D077F6F00A7
:00000001FF
